:100000000C942A000C9447000C9447000C94470071
:100010000C94AF080C9482080C9447000C94470091
:100020000C9447000C9447000C94C30A0C94960A55
:100030000C9447000C9447000C9447000C94470024
:100040000C9447000C9447000C9447000C94470014
:100050000C94470011241FBECFE5D8E0DEBFCDBF12
:1000600011E0A0E6B0E0E2EEF5E302C005900D92EB
:10007000AC39B107D9F711E0ACE9B1E001C01D928C
:10008000AA3BB107E1F70E948B1A0C94EF1A0C946B
:100090000000EF92FF920F931F937B018C0120E0F1
:1000A00030E040E05FE40E94F50388238CF0C80153
:1000B000B70120E030E040E05FE40E94C1010E940F
:1000C00085049B01AC01205030404040504806C0A0
:1000D000C801B7010E9485049B01AC01B901CA01A6
:1000E0001F910F91FF90EF900895A0E0B0E0EBE733
:1000F000F0E00C94B81ADC012B01FA019C919230CB
:1001000008F439C1EB018881823008F433C194309E
:1001100069F4843009F02FC111969C91119789815F
:10012000981709F428C1A3E8B0E025C1843009F488
:1001300021C18230A9F4923009F01DC19A01AD01AC
:1001400088E0EA010990AE01E90109929E0181501F
:10015000C1F7E201898111969C918923818308C1AD
:10016000923009F407C112962D903C901397EB0141
:100170008A819B811496AD90BD90CD90DC901797AD
:10018000EC80FD800E811F819101281B390BB90184
:1001900037FF04C066277727621B730B6032710537
:1001A0000CF061C0121613066CF537014801062EDB
:1001B00004C096948794779467940A94D2F721E0C8
:1001C00030E040E050E004C0220F331F441F551FB1
:1001D0006A95D2F721503040404050402E213F21B7
:1001E00040235123211531054105510521F021E01E
:1001F00030E040E050E079018A01E628F72808293C
:1002000019293CC0232BD1F1260E371E350146019A
:10021000062E04C096948794779467940A94D2F734
:1002200021E030E040E050E004C0220F331F441FC3
:10023000551F6A95D2F721503040404050402A2146
:100240003B214C215D21211531054105510521F04E
:1002500021E030E040E050E059016A01A628B728CB
:10026000C828D9280BC0821593052CF01C01AA249C
:10027000BB24650103C0EE24FF24870111969C91E5
:10028000D20111968C91981709F445C0992339F041
:10029000A80197012A193B094C095D0906C0A6016E
:1002A00095012E193F09400B510B57FD08C01182D3
:1002B0003382228224833583468357831DC081E0A5
:1002C00081833382228288279927DC01821B930B4A
:1002D000A40BB50B84839583A683B7830DC0220F2F
:1002E000331F441F551F24833583468357838281E0
:1002F000938101979383828324813581468157813D
:10030000DA01C9010197A109B1098F5F9F4FAF4F72
:10031000BF4328F30BC0918333822282EA0CFB1C7B
:100320000C1D1D1DE482F5820683178383E0808304
:10033000248135814681578157FF1AC0C901AA27F8
:1003400097FDA095BA2F81709070A070B0705695EF
:10035000479537952795822B932BA42BB52B848318
:100360009583A683B7838281938101969383828349
:10037000DF0101C0D201CD01CDB7DEB7E2E10C94BF
:10038000D41AA0E2B0E0E7ECF1E00C94C41A69835F
:100390007A838B839C832D833E834F835887E9E048
:1003A000EE2EF12CEC0EFD1ECE010196B7010E943F
:1003B00076068E010F5E1F4FCE010596B8010E9492
:1003C00076068A8991E089278A8BC701B801AE0138
:1003D000475E5F4F0E9475000E94A105A096E6E06F
:1003E0000C94E01AA0E2B0E0E8EFF1E00C94C41A3B
:1003F00069837A838B839C832D833E834F835887C5
:10040000F9E0EF2EF12CEC0EFD1ECE010196B701A6
:100410000E9476068E010F5E1F4FCE010596B80131
:100420000E947606C701B801AE01475E5F4F0E9489
:1004300075000E94A105A096E6E00C94E01AA0E2E7
:10044000B0E0E5E2F2E00C94B81A69837A838B831A
:100450009C832D833E834F835887CE010196BE0136
:10046000675F7F4F0E947606CE010596BE016F5EE4
:100470007F4F0E9476069985923088F08989823074
:10048000C8F0943019F4823051F404C0843029F457
:10049000923081F483E890E0C6C0923049F420E0C5
:1004A0009A858A89981321E02A87CE010996BBC0D4
:1004B000823049F420E09A858A89981321E02A8BBA
:1004C000CE014196B0C02D843E844F8458886D88FB
:1004D0007E888F88988CEE24FF248701AA24BB2471
:1004E000650140E050E060E070E0E0E0F0E0C10174
:1004F00081709070892BE9F0E60CF71C081D191D1E
:100500009A01AB012A0D3B1D4C1D5D1D80E090E062
:10051000A0E0B0E0E614F7040805190520F481E036
:1005200090E0A0E0B0E0BA01A901480F591F6A1F8E
:100530007B1FAA0CBB1CCC1CDD1C97FE08C081E0F5
:1005400090E0A0E0B0E0A82AB92ACA2ADB2A3196B6
:10055000E032F10549F0660C771C881C991C569412
:10056000479437942794C3CFFA85EA892B893C892D
:100570008B859C85280F391F2E5F3F4F17C0CA01FE
:1005800081709070892B61F016950795F794E79428
:1005900080E090E0A0E0B0E8E82AF92A0A2B1B2BC3
:1005A00076956795579547952F5F3F4F77FDE7CF36
:1005B0000CC0440F551F661F771F17FD4160EE0CDE
:1005C000FF1C001F111F21503040403090E05907A0
:1005D00090E0690790E4790760F32B8F3C8FDB0193
:1005E000CA018F779070A070B07080349105A1051A
:1005F000B10561F447FD0AC0E114F10401051105DC
:1006000029F0405C5F4F6F4F7F4F40781A8EFE1786
:1006100011F081E08A8F4D8F5E8F6F8F78A383E01A
:10062000898FCE0149960E94A105A096E2E10C9423
:10063000D41AA8E1B0E0EFE1F3E00C94C01A6983AA
:100640007A838B839C832D833E834F835887B9E0C5
:10065000EB2EF12CEC0EFD1ECE010196B7010E948F
:1006600076068E010F5E1F4FCE010596B8010E94DF
:1006700076062985223008F47EC03989323010F49C
:10068000B8017CC08A859A8989278A87243011F02D
:10069000223031F4231709F06EC063E870E06EC0B9
:1006A000343039F41D861E861F86188A1C861B86E8
:1006B00004C0323021F484E08987B7015FC02B8504
:1006C0003C858B899C89281B390B3C872B87ED84C3
:1006D000FE840F851889AD88BE88CF88D88CEA142F
:1006E000FB040C051D0540F4EE0CFF1C001F111F40
:1006F000215030403C872B8720E030E040E050E044
:1007000080E090E0A0E0B0E460E070E0EA14FB0478
:100710000C051D0540F0282B392B4A2B5B2BEA18C2
:10072000FB080C091D09B695A79597958795EE0CC2
:10073000FF1C001F111F6F5F7F4F6F31710531F775
:10074000DA01C9018F779070A070B0708034910584
:10075000A105B10561F427FD0AC0E114F10401050A
:10076000110529F0205C3F4F4F4F5F4F20782D87B8
:100770003E874F87588BBE01675F7F4FCB010E943A
:10078000A1056896EAE00C94DC1AA8E1B0E0EBEC75
:10079000F3E00C94C41A69837A838B839C832D8342
:1007A0003E834F83588789E0E82EF12CEC0EFD1E26
:1007B000CE010196B7010E9476068E010F5E1F4F93
:1007C000CE010596B8010E9476068985823040F0F8
:1007D0008989823028F0C701B8010E94EE0601C065
:1007E0008FEF6896E6E00C94E01AA8E1B0E0EBEF3A
:1007F000F3E00C94C41A69837A838B839C832D83E2
:100800003E834F83588789E0E82EF12CEC0EFD1EC5
:10081000CE010196B7010E9476068E010F5E1F4F32
:10082000CE010596B8010E9476068985823040F097
:100830008989823028F0C701B8010E94EE0601C004
:100840008FEF6896E6E00C94E01AA8E1B0E0EBE2E6
:10085000F4E00C94C41A69837A838B839C832D8380
:100860003E834F83588789E0E82EF12CEC0EFD1E65
:10087000CE010196B7010E9476068E010F5E1F4FD2
:10088000CE010596B8010E9476068985823040F037
:100890008989823028F0C701B8010E94EE0601C0A4
:1008A00081E06896E6E00C94E01AA8E1B0E0EBE5A0
:1008B000F4E00C94C41A69837A838B839C832D8320
:1008C0003E834F83588789E0E82EF12CEC0EFD1E05
:1008D000CE010196B7010E9476068E010F5E1F4F72
:1008E000CE010596B8010E9476068985823040F0D7
:1008F0008989823028F0C701B8010E94EE0601C044
:1009000081E06896E6E00C94E01AACE0B0E0EBE839
:10091000F4E00C94C81A69837A838B839C83CE019C
:100920000196BE016B5F7F4F0E9476068D818230FB
:1009300061F1823050F1843021F48E81882351F1AD
:100940002EC02F81388537FD20C06E812F313105B3
:100950001CF06623F9F023C08EE190E0821B930B1C
:1009600029853A854B855C8504C056954795379512
:1009700027958A95D2F76623B1F05095409530952A
:1009800021953F4F4F4F5F4F0EC020E030E040E0D9
:1009900050E009C02FEF3FEF4FEF5FE704C020E0CA
:1009A00030E040E050E8B901CA012C96E2E00C9436
:1009B000E41AA8E0B0E0EFEDF4E00C94C01A7B017B
:1009C0008C01611571058105910519F482E0898317
:1009D00060C083E089838EE1C82ED12CDC82CB827B
:1009E000ED82FE820F831887C801B7010E9452056D
:1009F000FC013197F7FF3BC0222733272E1B3F0B0B
:100A000057016801022E04C0D694C794B794A794E6
:100A10000A94D2F740E050E060E070E081E090E0BE
:100A2000A0E0B0E004C0880F991FAA1FBB1F2A9541
:100A3000D2F70197A109B1098E219F21A023B123EB
:100A40000097A105B10521F041E050E060E070E0C1
:100A50004A295B296C297D294D835E836F837887C2
:100A60008EE190E08E1B9F0B9C838B8312C030978E
:100A700081F00E2E04C0EE0CFF1C001F111F0A9403
:100A8000D2F7ED82FE820F831887CE1ADF0ADC824E
:100A9000CB821A82CE0101960E94A1052896EAE037
:100AA0000C94DC1AEF92FF920F931F937B018C0141
:100AB00080E0E81680E0F80681E0080780E018078B
:100AC00088F48FEFE816F1040105110531F028F0E4
:100AD00088E090E0A0E0B0E017C080E090E0A0E007
:100AE000B0E012C080E0E81680E0F80680E0080779
:100AF00081E0180728F088E190E0A0E0B0E004C0B1
:100B000080E190E0A0E0B0E020E230E040E050E0A2
:100B1000281B390B4A0B5B0B04C016950795F794FD
:100B2000E7948A95D2F7F701E557FF4F8081281B9C
:100B3000310941095109C9011F910F91FF90EF90AF
:100B40000895DF92EF92FF920F931F93FC01E480D0
:100B5000F58006811781D1808081823048F480E061
:100B600090E0A0E1B0E0E82AF92A0A2B1B2BA5C0EF
:100B7000843009F49FC0823021F4EE24FF248701E1
:100B800005C0E114F1040105110519F4E0E0F0E0FD
:100B900096C0628173819FEF623879070CF05BC069
:100BA00022E83FEF261B370B2A3131052CF020E0DD
:100BB00030E040E050E02AC0B801A701022E04C096
:100BC00076956795579547950A94D2F781E090E01E
:100BD000A0E0B0E004C0880F991FAA1FBB1F2A9590
:100BE000D2F70197A109B1098E219F21A023B1233A
:100BF0000097A105B10521F081E090E0A0E0B0E010
:100C00009A01AB01282B392B4A2B5B2BDA01C90146
:100C10008F779070A070B07080349105A105B105F8
:100C200039F427FF09C0205C3F4F4F4F5F4F04C08E
:100C3000215C3F4F4F4F5F4FE0E0F0E02030A0E0FD
:100C40003A07A0E04A07A0E45A0710F0E1E0F0E01C
:100C500079018A0127C06038710564F5FB01E1580C
:100C6000FF4FD801C7018F779070A070B0708034AB
:100C70009105A105B10539F4E7FE0DC080E490E0CF
:100C8000A0E0B0E004C08FE390E0A0E0B0E0E80EA8
:100C9000F91E0A1F1B1F17FF05C016950795F7942D
:100CA000E794319687E016950795F794E7948A952F
:100CB000D1F705C0EE24FF248701EFEFF0E06E2F9F
:100CC000679566276795902F9F77D794DD24D794F3
:100CD0008E2F8695492F462B582F5D29B701CA01C3
:100CE0001F910F91FF90EF90DF900895FC01DB01C1
:100CF000408151812281622F6F7770E0221F22276D
:100D0000221F9381892F880F822B282F30E0991F73
:100D10009927991F11969C93119721153105A9F5D3
:100D2000411551056105710511F482E037C082E873
:100D30009FEF13969C938E9312979A01AB0167E0F5
:100D4000220F331F441F551F6A95D1F783E08C9300
:100D50000DC0220F331F441F551F12968D919C9179
:100D60001397019713969C938E931297203080E0EF
:100D7000380780E0480780E4580758F314962D930D
:100D80003D934D935C93179708952F3F310579F468
:100D9000411551056105710519F484E08C9308959E
:100DA00064FF03C081E08C9312C01C9210C02F57C7
:100DB000304013963C932E93129783E08C9387E0F8
:100DC000440F551F661F771F8A95D1F770641496DC
:100DD0004D935D936D937C93179708951F93DC015A
:100DE000FB019C91923008F447C08081823008F466
:100DF00043C0943051F411961C91843099F581814F
:100E0000682F70E0611B71093FC0843021F092307F
:100E100031F48230B9F18181882389F12DC0119696
:100E20001C9111978230F1F081811817D9F4129634
:100E30002D913C911397828193818217930794F0AF
:100E400028173907BCF014968D919D910D90BC9197
:100E5000A02D2481358146815781281739074A07FB
:100E60005B0718F4112341F00AC082179307A40707
:100E7000B50740F4112319F061E070E005C06FEF91
:100E80007FEF02C060E070E0CB011F910895DF9317
:100E9000CF9300D0CDB7DEB783E390E09A83898308
:100EA000E9E2F0E089818083E0E4F0E089819A81E1
:100EB000892F99278083AAE2B0E0EAE2F0E08081FE
:100EC00088608C93AAE2B0E0EAE2F0E08081806181
:100ED0008C93A0E4B0E0E0E4F0E0808180688C9343
:100EE000A0E4B0E0E0E4F0E0808182608C93A0E4D4
:100EF000B0E0E0E4F0E0808184608C93AAE2B0E0AE
:100F0000EAE2F0E080818B7F8C930F900F90CF917D
:100F1000DF910895DF93CF930F92CDB7DEB789832A
:100F2000EBE2F0E08081829586958770882F90E0D3
:100F3000817090700097A1F3ECE2F0E089818083EA
:100F40000F90CF91DF910895DF93CF93CDB7DEB7A8
:100F5000EBE2F0E080818823DCF7ECE2F0E08081D6
:100F6000CF91DF910895DF93CF9300D0CDB7DEB757
:100F70009A8389830AC0E981FA8180810E948A0765
:100F800089819A8101969A838983E981FA81808196
:100F9000882389F78AE00E948A070F900F90CF91EB
:100FA000DF910895DF93CF93CDB7DEB7A5E4B0E02E
:100FB000E5E4F0E080818F7B8C93A5E4B0E0E5E48C
:100FC000F0E08081877F8C93A5E4B0E0E5E4F0E079
:100FD00080818E7F8C93A5E4B0E0E5E4F0E0808131
:100FE00082608C93A5E4B0E0E5E4F0E080818B7F43
:100FF0008C93A5E4B0E0E5E4F0E080818F7E8C93F3
:10100000A5E4B0E0E5E4F0E080818F7D8C93CF91A2
:10101000DF910895DF93CF93CDB7DEB7A9E5B0E0B8
:10102000E9E5F0E0808180648C93CF91DF910895B1
:10103000DF93CF93CDB7DEB7A9E5B0E0E9E5F0E007
:10104000808180688C93CF91DF910895DF93CF9357
:10105000CDB7DEB7A9E5B0E0E9E5F0E080818F7BB0
:101060008C93CF91DF910895DF93CF93CDB7DEB707
:10107000A9E5B0E0E9E5F0E080818F778C93CF912E
:10108000DF910895DF93CF930F92CDB7DEB78983B9
:10109000E4E4F0E0898180830F90CF91DF9108959F
:1010A000DF93CF930F92CDB7DEB78983E3E4F0E00F
:1010B000898180830F90CF91DF910895DF93CF9343
:1010C00000D0CDB7DEB79A83898389819A819093C6
:1010D0009D0180939C010F900F90CF91DF91089517
:1010E000DF93CF9300D0CDB7DEB79A838983898110
:1010F0009A8190939F0180939E010F900F90CF91C2
:10110000DF9108951F920F920FB60F9211242F9323
:101110003F934F935F936F937F938F939F93AF937F
:10112000BF93EF93FF93DF93CF93CDB7DEB7E091FB
:101130009C01F0919D010995CF91DF91FF91EF9175
:10114000BF91AF919F918F917F916F915F914F91DF
:101150003F912F910F900FBE0F901F9018951F92E7
:101160000F920FB60F9211242F933F934F935F93DB
:101170006F937F938F939F93AF93BF93EF93FF935F
:10118000DF93CF93CDB7DEB7E0919E01F0919F0141
:101190000995CF91DF91FF91EF91BF91AF919F9111
:1011A0008F917F916F915F914F913F912F910F9010
:1011B0000FBE0F901F901895DF93CF93CDB7DEB77A
:1011C000AFE4B0E0EFE4F0E080818E7F8C93AFE499
:1011D000B0E0EFE4F0E0808182608C93AEE4B0E0B8
:1011E000EEE4F0E0808188608C93AEE4B0E0EEE461
:1011F000F0E0808180618C93AEE4B0E0EEE4F0E05A
:1012000080818E7F8C93AEE4B0E0EEE4F0E08081EC
:1012100082608C93AEE4B0E0EEE4F0E080818B7FFE
:101220008C93AFE4B0E0EFE4F0E080818F7B8C93AF
:10123000AFE4B0E0EFE4F0E0808180688C93AFE44D
:10124000B0E0EFE4F0E080818F7E8C93AFE4B0E01B
:10125000EFE4F0E080818F7D8C93CF91DF91089552
:10126000DF93CF9300D0CDB7DEB79A838983ECE4C8
:10127000F0E089819A81918380830F900F90CF91C4
:10128000DF910895DF93CF9300D0CDB7DEB79A8377
:101290008983EAE4F0E089819A81918380830F90C9
:1012A0000F90CF91DF910895DF93CF9300D0CDB70A
:1012B000DEB79A838983E8E4F0E089819A8191839B
:1012C00080830F900F90CF91DF910895DF93CF939C
:1012D00000D0CDB7DEB79A838983E6E4F0E0898158
:1012E0009A81918380830F900F90CF91DF91089521
:1012F000DF93CF93CDB7DEB7A9E5B0E0E9E5F0E045
:10130000808184608C93CF91DF910895DF93CF9398
:10131000CDB7DEB7A9E5B0E0E9E5F0E08081806116
:101320008C93CF91DF910895DF93CF93CDB7DEB744
:10133000A9E5B0E0E9E5F0E0808188608C93CF9189
:10134000DF910895DF93CF93CDB7DEB7A9E5B0E085
:10135000E9E5F0E0808180628C93CF91DF91089580
:10136000DF93CF9300D0CDB7DEB79A83898389818D
:101370009A819093B7018093B6010F900F90CF910F
:10138000DF910895DF93CF9300D0CDB7DEB79A8376
:10139000898389819A819093B5018093B4010F90DC
:1013A0000F90CF91DF910895DF93CF9300D0CDB709
:1013B000DEB79A83898389819A819093B90180935A
:1013C000B8010F900F90CF91DF910895DF93CF93E5
:1013D000CDB7DEB7A3E5B0E0E3E5F0E080818F7B39
:1013E0008C93A3E5B0E0E3E5F0E0808188608C9326
:1013F000A3E5B0E0E3E5F0E080818E7F8C93A3E588
:10140000B0E0E3E5F0E0808182608C93A3E5B0E09A
:10141000E3E5F0E080818B7F8C93A3E5B0E0E3E52A
:10142000F0E080818F7E8C93A3E5B0E0E3E5F0E00F
:1014300080818F7D8C93CF91DF910895DF93CF933F
:10144000CDB7DEB7A9E5B0E0E9E5F0E080818160E5
:101450008C93CF91DF910895DF93CF93CDB7DEB713
:10146000A9E5B0E0E9E5F0E0808182608C93CF915E
:10147000DF910895DF93CF93CDB7DEB7A9E5B0E054
:10148000E9E5F0E080818E7F8C93CF91DF91089524
:10149000DF93CF93CDB7DEB7A9E5B0E0E9E5F0E0A3
:1014A00080818D7F8C93CF91DF910895DF93CF93CF
:1014B0000F92CDB7DEB78983E2E5F0E089818083C2
:1014C0000F90CF91DF910895DF93CF930F92CDB717
:1014D000DEB78983ECE5F0E0898180830F90CF91BE
:1014E000DF910895DF93CF9300D0CDB7DEB79A8315
:1014F000898389819A819093A1018093A0010F90A3
:101500000F90CF91DF910895DF93CF9300D0CDB7A7
:10151000DEB79A83898389819A819093A30180930E
:10152000A2010F900F90CF91DF9108951F920F921B
:101530000FB60F9211242F933F934F935F936F93A6
:101540007F938F939F93AF93BF93EF93FF93DF931B
:10155000CF93CDB7DEB7E091A001F091A10109953D
:10156000CF91DF91FF91EF91BF91AF919F918F91BB
:101570007F916F915F914F913F912F910F900FBE8F
:101580000F901F9018951F920F920FB60F92112473
:101590002F933F934F935F936F937F938F939F937B
:1015A000AF93BF93EF93FF93DF93CF93CDB7DEB7A6
:1015B000E091A201F091A3010995CF91DF91FF91F4
:1015C000EF91BF91AF919F918F917F916F915F91BB
:1015D0004F913F912F910F900FBE0F901F90189534
:1015E0000F931F93DF93CF9300D000D0CDB7DEB71A
:1015F00069837A838B839C83E1E2F0E081E08083DE
:1016000000E210E080E092E1AAE7B0E029813A81AF
:101610004B815C81BC01CD010E94961ADA01C9019F
:101620004097A109B109BC01CD010E94D904DC0198
:10163000CB01BC01CD0120E030E040E051E40E944C
:101640001903DC01CB01BC01CD010E944900DC0182
:10165000CB01F80180830F900F900F900F90CF91E6
:10166000DF911F910F910895DF93CF93CDB7DEB730
:101670002E970FB6F894DEBF0FBECDBF80E090E08E
:10168000A6E9B3E48B879C87AD87BE876B857C8595
:101690008D859E8520E030E04AEF54E40E941F02D1
:1016A000DC01CB018F839887A987BA876F81788502
:1016B00089859A8520E030E040E85FE30E942504B8
:1016C00088232CF481E090E09E838D833FC06F815E
:1016D000788589859A8520E03FEF4FE757E40E949F
:1016E000C50318164CF56B857C858D859E8520E09D
:1016F00030E040E251E40E941F02DC01CB01BC015A
:10170000CD010E944900DC01CB019E838D830FC077
:1017100088EC90E09C838B838B819C810197F1F70F
:101720009C838B838D819E8101979E838D838D8188
:101730009E81009769F714C06F81788589859A85A5
:101740000E944900DC01CB019E838D838D819E81A7
:101750009A83898389819A810197F1F79A83898392
:10176000E6E5F0E084EA8083E6E5F0E08081881F2A
:101770008827881F882F90E090700097A9F3E1E2F6
:10178000F0E08081882F90E0887F9070883091050C
:10179000B1F72E960FB6F894DEBF0FBECDBFCF9136
:1017A000DF910895DF93CF93CDB7DEB72E970FB6B5
:1017B000F894DEBF0FBECDBF80E090E0A6E9B3E4B1
:1017C0008B879C87AD87BE876B857C858D859E8545
:1017D00020E030E04AEF54E40E941F02DC01CB011C
:1017E0008F839887A987BA876F81788589859A853D
:1017F00020E030E040E85FE30E94250488232CF4D9
:1018000081E090E09E838D833FC06F8178858985DC
:101810009A8520E03FEF4FE757E40E94C503181672
:101820004CF56B857C858D859E8520E030E040E21F
:1018300051E40E941F02DC01CB01BC01CD010E94DA
:101840004900DC01CB019E838D830FC088EC90E0C2
:101850009C838B838B819C810197F1F79C838B8385
:101860008D819E8101979E838D838D819E810097BE
:1018700069F714C06F81788589859A850E9449002F
:10188000DC01CB019E838D838D819E819A83898328
:1018900089819A810197F1F79A838983E6E5F0E0DF
:1018A00084EA8083E6E5F0E08081881F8827881F2E
:1018B000882F90E090700097A9F3E1E2F0E080813A
:1018C000882F90E0887F907080319105B1F72E9637
:1018D0000FB6F894DEBF0FBECDBFCF91DF91089554
:1018E000DF93CF930F92CDB7DEB78983E3E2F0E0C9
:1018F00089818083E6E5F0E084E88083E6E5F0E036
:101900008081881F8827881F882F90E0907000971B
:10191000A9F3E1E2F0E08081882F90E0887F907069
:1019200088319105B1F70F90CF91DF910895DF9342
:10193000CF930F92CDB7DEB78983E3E2F0E08981E0
:101940008083E6E5F0E084E88083E6E5F0E08081EE
:10195000881F8827881F882F90E090700097A9F330
:10196000E1E2F0E08081882F90E0887F9070803401
:101970009105B1F70F90CF91DF910895DF93CF9349
:101980000F92CDB7DEB78983E3E2F0E089818083EF
:10199000E6E5F0E084E88083E6E5F0E08081881FFA
:1019A0008827881F882F90E090700097A9F3E1E2C4
:1019B000F0E08081882F90E0887F907088329105D8
:1019C000B1F70F90CF91DF910895DF93CF93CDB70B
:1019D000DEB7E6E5F0E084E88083E6E5F0E08081CC
:1019E000881F8827881F882F90E090700097A9F3A0
:1019F000E1E2F0E08081882F90E0887F9070803570
:101A00009105B1F7E3E2F0E08081CF91DF91089595
:101A1000DF93CF93CDB7DEB7E6E5F0E084E88083CF
:101A2000E6E5F0E08081881F8827881F882F90E0F6
:101A300090700097A9F3E1E2F0E08081882F90E0B8
:101A4000887F907088359105B1F7E3E2F0E08081FE
:101A5000CF91DF910895DF93CF93CDB7DEB7E6E561
:101A6000F0E084E98083CF91DF910895DF93CF93F5
:101A70000F92CDB7DEB78983E2E2F0E089818083FF
:101A80000F90CF91DF910895DF93CF93CDB7DEB75D
:101A9000E6E5F0E084EC8083E6E5F0E08081881FF5
:101AA0008827881F882F90E090700097A9F3E1E2C3
:101AB000F0E08081882F90E0887F907080369105DB
:101AC000B1F7E6E5F0E084EC8083E6E5F0E08081C4
:101AD000881F8827881F882F90E090700097A9F3AF
:101AE000E1E2F0E08081882F90E0887F907080387C
:101AF0009105B1F7E3E2F0E08081CF91DF910895A5
:101B0000DF93CF93CDB7DEB7AFE5B0E0EFE5F0E020
:101B1000808180688C93CF91DF910895DF93CF937C
:101B2000CDB7DEB7AFE5B0E0EFE5F0E080818F77CD
:101B30008C93CF91DF910895DF93CF93CDB7DEB72C
:101B400027970FB6F894DEBF0FBECDBF89836A8397
:101B50004B838B81813009F06FC08981282F30E061
:101B60003F832E838E819F818130910549F12E81A3
:101B70003F81223031052CF48E819F81009761F0E6
:101B8000D2C02E813F812230310571F18E819F813B
:101B900083309105E9F1C7C0AAE3B0E0EAE3F0E0E1
:101BA0008081482F8A81282F30E081E090E0022E4A
:101BB00002C0880F991F0A94E2F7842B8C93B3C05C
:101BC000A7E3B0E0E7E3F0E08081482F8A81282F87
:101BD00030E081E090E0022E02C0880F991F0A9445
:101BE000E2F7842B8C939FC0A4E3B0E0E4E3F0E041
:101BF0008081482F8A81282F30E081E090E0022EFA
:101C000002C0880F991F0A94E2F7842B8C938BC033
:101C1000A1E3B0E0E1E3F0E08081482F8A81282F42
:101C200030E081E090E0022E02C0880F991F0A94F4
:101C3000E2F7842B8C9377C08B81882309F073C0E3
:101C40008981282F30E03D832C838C819D818130D8
:101C5000910559F12C813D81223031052CF48C8184
:101C60009D81009769F05FC02C813D812230310554
:101C700089F18C819D818330910509F440C053C066
:101C8000AAE3B0E0EAE3F0E08081482F8A81282FC0
:101C900030E081E090E0022E02C0880F991F0A9484
:101CA000E2F7809584238C933EC0A7E3B0E0E7E39E
:101CB000F0E08081482F8A81282F30E081E090E099
:101CC000022E02C0880F991F0A94E2F780958423A0
:101CD0008C9329C0A4E3B0E0E4E3F0E08081482FD6
:101CE0008A81282F30E081E090E0022E02C0880F28
:101CF000991F0A94E2F7809584238C9314C0A1E382
:101D0000B0E0E1E3F0E08081482F8A81282F30E0C5
:101D100081E090E0022E02C0880F991F0A94E2F73A
:101D2000809584238C9327960FB6F894DEBF0FBE60
:101D3000CDBFCF91DF910895DF93CF93CDB7DEB7BD
:101D400027970FB6F894DEBF0FBECDBF89836A8395
:101D50004B838B81813009F06FC08981282F30E05F
:101D60003F832E838E819F818130910549F12E81A1
:101D70003F81223031052CF48E819F81009761F0E4
:101D8000D2C02E813F812230310571F18E819F8139
:101D900083309105E9F1C7C0ABE3B0E0EBE3F0E0DD
:101DA0008081482F8A81282F30E081E090E0022E48
:101DB00002C0880F991F0A94E2F7842B8C93B3C05A
:101DC000A8E3B0E0E8E3F0E08081482F8A81282F83
:101DD00030E081E090E0022E02C0880F991F0A9443
:101DE000E2F7842B8C939FC0A5E3B0E0E5E3F0E03D
:101DF0008081482F8A81282F30E081E090E0022EF8
:101E000002C0880F991F0A94E2F7842B8C938BC031
:101E1000A2E3B0E0E2E3F0E08081482F8A81282F3E
:101E200030E081E090E0022E02C0880F991F0A94F2
:101E3000E2F7842B8C9377C08B81882309F073C0E1
:101E40008981282F30E03D832C838C819D818130D6
:101E5000910559F12C813D81223031052CF48C8182
:101E60009D81009769F05FC02C813D812230310552
:101E700089F18C819D818330910509F440C053C064
:101E8000ABE3B0E0EBE3F0E08081482F8A81282FBC
:101E900030E081E090E0022E02C0880F991F0A9482
:101EA000E2F7809584238C933EC0A8E3B0E0E8E39A
:101EB000F0E08081482F8A81282F30E081E090E097
:101EC000022E02C0880F991F0A94E2F7809584239E
:101ED0008C9329C0A5E3B0E0E5E3F0E08081482FD2
:101EE0008A81282F30E081E090E0022E02C0880F26
:101EF000991F0A94E2F7809584238C9314C0A2E37F
:101F0000B0E0E2E3F0E08081482F8A81282F30E0C2
:101F100081E090E0022E02C0880F991F0A94E2F738
:101F2000809584238C9327960FB6F894DEBF0FBE5E
:101F3000CDBFCF91DF910895DF93CF9300D000D034
:101F40000F92CDB7DEB78A836B838A81282F30E06A
:101F50003D832C834C815D8141305105B1F18C81F1
:101F60009D818230910534F42C813D81211531050C
:101F700071F084C04C815D814230510509F443C049
:101F80008C819D818330910509F45BC077C0E9E3C2
:101F9000F0E08081482F50E08B81282F30E081E0F5
:101FA00090E002C0880F991F2A95E2F79A01282332
:101FB00039238B81882F90E0A90102C05595479560
:101FC0008A95E2F7CA01898359C0E6E3F0E080818F
:101FD000482F50E08B81282F30E081E090E002C054
:101FE000880F991F2A95E2F79A01282339238B81BC
:101FF000882F90E0A90102C0559547958A95E2F790
:10200000CA0189833BC0E3E3F0E08081482F50E0C0
:102010008B81282F30E081E090E002C0880F991F6B
:102020002A95E2F79A01282339238B81882F90E0A3
:10203000A90102C0559547958A95E2F7CA0189839F
:102040001DC0E0E3F0E08081482F50E08B81282F15
:1020500030E081E090E002C0880F991F2A95E2F7F6
:102060009A01282339238B81882F90E0A90102C08F
:10207000559547958A95E2F7CA01898389810F9022
:102080000F900F900F900F90CF91DF910895DF93F5
:10209000CF9300D000D0CDB7DEB789836A83898122
:1020A000282F30E03C832B838B819C8181309105EC
:1020B00049F12B813C81223031052CF48B819C81AC
:1020C000009761F05AC02B813C812230310571F1BB
:1020D0008B819C8183309105E9F14FC0ABE3B0E087
:1020E000EBE3F0E08081482F8A81282F30E081E007
:1020F00090E0022E02C0880F991F0A94E2F784270D
:102100008C933BC0A8E3B0E0E8E3F0E08081482F87
:102110008A81282F30E081E090E0022E02C0880FF3
:10212000991F0A94E2F784278C9327C0A5E3B0E0B7
:10213000E5E3F0E08081482F8A81282F30E081E0BC
:1021400090E0022E02C0880F991F0A94E2F78427BC
:102150008C9313C0A2E3B0E0E2E3F0E08081482F6B
:102160008A81282F30E081E090E0022E02C0880FA3
:10217000991F0A94E2F784278C930F900F900F9089
:102180000F90CF91DF910895DF93CF9300D000D0CF
:10219000CDB7DEB789836A838981282F30E03C83FD
:1021A0002B838B819C8181309105D1F02B813C81E7
:1021B000223031052CF48B819C81009761F01EC088
:1021C0002B813C812230310581F08B819C818330D1
:1021D000910581F013C0EAE3F0E08A8180830EC0AC
:1021E000E7E3F0E08A81808309C0E4E3F0E08A81DC
:1021F000808304C0E1E3F0E08A8180830F900F9038
:102200000F900F90CF91DF910895DF93CF9300D07F
:1022100000D0CDB7DEB789836A838981282F30E06B
:102220003C832B838B819C8181309105D1F02B8164
:102230003C81223031052CF48B819C81009761F028
:102240001EC02B813C812230310581F08B819C8125
:102250008330910581F013C0EBE3F0E08A81808345
:102260000EC0E8E3F0E08A81808309C0E5E3F0E096
:102270008A81808304C0E2E3F0E08A8180830F904A
:102280000F900F900F90CF91DF910895DF93CF9330
:1022900000D000D0CDB7DEB78A838A81282F30E006
:1022A0003C832B838B819C8181309105D1F02B81E4
:1022B0003C81223031052CF48B819C81009761F0A8
:1022C0001EC02B813C812230310581F08B819C81A5
:1022D0008330910581F013C0EBE3F0E080818983C6
:1022E0000EC0E8E3F0E08081898309C0E5E3F0E017
:1022F0008081898304C0E2E3F0E080818983898161
:102300000F900F900F900F90CF91DF910895DF9372
:10231000CF9300D0CDB7DEB789836A838A81982FA7
:102320009295907F8981692F0E9405110F900F90DF
:10233000CF91DF910895DF93CF93CDB7DEB72A9782
:102340000FB6F894DEBF0FBECDBF6D837E838F8343
:1023500098871A866D817E818F81988520E030E094
:1023600040E050E00E94F503882314F081E08A8762
:1023700081E09A858927882379F519866D817E8188
:102380008F81988520E030E044EB52E40E945504B0
:10239000181614F081E0898781E0998589278823C0
:1023A000D9F46D817E818F81988522E63BE046EBF2
:1023B0005BE30E941F02DC01CB01BC01CD0120E0E8
:1023C00030E040EC5FE30E94F201DC01CB01898345
:1023D0009A83AB83BC8332C06D817E818F81988567
:1023E00020E030E044EB52EC0E94F503882334F106
:1023F0006D817E818F81988520E030E040E050E063
:102400000E9455041816D4F06D817E818F819885C5
:1024100022E63BE046EB5BE30E941F02DC01CB01BE
:10242000BC01CD0120E030E040EC5FE30E94F2010E
:10243000DC01CB0189839A83AB83BC8369817A8178
:102440008B819C812FE632E143E85AE30E941F0210
:10245000DC01CB01BC01CD012DEB37E346E855E3B0
:102460000E941903DC01CB01BC01CD010E9449008F
:10247000DC01CB01CC01A0E0B0E0BC01CD010E94A9
:10248000D904DC01CB0189839A83AB83BC83698146
:102490007A818B819C810E944900DC01CB010E94E2
:1024A00042092A960FB6F894DEBF0FBECDBFCF917A
:1024B000DF9108950F931F93DF93CF93CDB7DEB7CE
:1024C000C654D0400FB6F894DEBF0FBECDBFFE019C
:1024D000ED5BFF4F80E090E0A8ECB2E48083918355
:1024E000A283B3838E01015C1F4FFE01ED5BFF4FA2
:1024F000608171818281938120E030E04AEF54E471
:102500000E941F02DC01CB01F80180839183A2832A
:10251000B383FE01FF96608171818281938120E007
:1025200030E040E85FE30E94250488232CF481E03A
:1025300090E09EAF8DAF46C0FE01FF966081718135
:102540008281938120E03FEF4FE757E40E94C5036B
:10255000181664F5FE01ED5BFF4F60817181828189
:10256000938120E030E040E251E40E941F02DC0150
:10257000CB01BC01CD010E944900DC01CB019EAF23
:102580008DAF0FC088EC90E09CAF8BAF8BAD9CAD56
:102590000197F1F79CAF8BAF8DAD9EAD01979EAFCC
:1025A0008DAF8DAD9EAD009769F716C0FE01FF9609
:1025B00060817181828193810E944900DC01CB019D
:1025C0009EAF8DAF8DAD9EAD9AAF89AF89AD9AADFF
:1025D0000197F1F79AAF89AF88E30E947D1580E0FB
:1025E00090E0A0E8BFE38DAB9EABAFABB8AF6DA9F9
:1025F0007EA98FA998AD20E030E04AEF54E40E9414
:102600001F02DC01CB0189AB9AABABABBCAB69A9B8
:102610007AA98BA99CA920E030E040E85FE30E9402
:10262000250488232CF481E090E098AB8FA73FC06D
:1026300069A97AA98BA99CA920E03FEF4FE757E44D
:102640000E94C50318164CF56DA97EA98FA998ADF7
:1026500020E030E040E251E40E941F02DC01CB01A7
:10266000BC01CD010E944900DC01CB0198AB8FA7D2
:102670000FC088EC90E09EA78DA78DA59EA5019721
:10268000F1F79EA78DA78FA598A9019798AB8FA763
:102690008FA598A9009769F714C069A97AA98BA991
:1026A0009CA90E944900DC01CB0198AB8FA78FA5A4
:1026B00098A99CA78BA78BA59CA50197F1F79CA730
:1026C0008BA78EE00E947D1580E090E0A0E8BFE33C
:1026D0008FA398A7A9A7BAA76FA178A589A59AA53E
:1026E00020E030E04AEF54E40E941F02DC01CB01FD
:1026F0008BA39CA3ADA3BEA36BA17CA18DA19EA126
:1027000020E030E040E85FE30E94250488232CF4B9
:1027100081E090E09AA389A33FC06BA17CA18DA129
:102720009EA120E03FEF4FE757E40E94C503181633
:102730004CF56FA178A589A59AA520E030E040E28C
:1027400051E40E941F02DC01CB01BC01CD010E94BB
:102750004900DC01CB019AA389A30FC088EC90E06B
:1027600098A38F8F8F8D98A10197F1F798A38F8FE2
:1027700089A19AA101979AA389A389A19AA10097F7
:1027800069F714C06BA17CA18DA19EA10E94490094
:10279000DC01CB019AA389A389A19AA19E8F8D8F79
:1027A0008D8D9E8D0197F1F79E8F8D8F81E00E9418
:1027B0007D1580E090E0A0E2B1E4898F9A8FAB8F25
:1027C000BC8F698D7A8D8B8D9C8D20E030E04AEF37
:1027D00054E40E941F02DC01CB018D8B9E8BAF8BDA
:1027E000B88F6D897E898F89988D20E030E040E830
:1027F0005FE30E94250488232CF481E090E09C8B09
:102800008B8B3FC06D897E898F89988D20E03FEF4B
:102810004FE757E40E94C50318164CF5698D7A8D71
:102820008B8D9C8D20E030E040E251E40E941F023D
:10283000DC01CB01BC01CD010E944900DC01CB01D0
:102840009C8B8B8B0FC088EC90E09A8B898B89894D
:102850009A890197F1F79A8B898B8B899C890197CB
:102860009C8B8B8B8B899C89009769F714C06D8931
:102870007E898F89988D0E944900DC01CB019C8B59
:102880008B8B8B899C89988B8F878F8598890197F3
:10289000F1F7988B8F8786E00E947D1580E090E0AD
:1028A000A0E8BFE38B879C87AD87BE876B857C855F
:1028B0008D859E8520E030E04AEF54E40E941F029F
:1028C000DC01CB018F839887A987BA876F817885D0
:1028D00089859A8520E030E040E85FE30E94250486
:1028E00088232CF481E090E09E838D833FC06F812C
:1028F000788589859A8520E03FEF4FE757E40E946D
:10290000C50318164CF56B857C858D859E8520E06A
:1029100030E040E251E40E941F02DC01CB01BC0127
:10292000CD010E944900DC01CB019E838D830FC045
:1029300088EC90E09C838B838B819C810197F1F7DD
:102940009C838B838D819E8101979E838D838D8156
:102950009E81009769F714C06F81788589859A8573
:102960000E944900DC01CB019E838D838D819E8175
:102970009A83898389819A810197F1F79A83898360
:10298000CA5BDF4F0FB6F894DEBF0FBECDBFCF914D
:10299000DF911F910F910895DF93CF93CDB7DEB7ED
:1029A0002F970FB6F894DEBF0FBECDBF8F8780E0A4
:1029B0006FEF0E94C41083E063E041E00E949C0D31
:1029C00083E067E041E00E949C0D83E064E041E029
:1029D0000E949C0D83E063E041E00E949C0E83E036
:1029E00064E040E00E949C0E80E06F850E9405112B
:1029F00083E067E041E00E949C0E80E090E0A0E868
:102A0000BFE38B879C87AD87BE876B857C858D8573
:102A10009E8520E030E04AEF54E40E941F02DC0172
:102A2000CB018F839887A987BA876F81788589853D
:102A30009A8520E030E040E85FE30E942504882387
:102A40002CF481E090E09E838D833FC06F81788578
:102A500089859A8520E03FEF4FE757E40E94C50340
:102A600018164CF56B857C858D859E8520E030E0C1
:102A700040E251E40E941F02DC01CB01BC01CD0108
:102A80000E944900DC01CB019E838D830FC088EC3E
:102A900090E09C838B838B819C810197F1F79C83D1
:102AA0008B838D819E8101979E838D838D819E81F5
:102AB000009769F714C06F81788589859A850E948F
:102AC0004900DC01CB019E838D838D819E819A8399
:102AD000898389819A810197F1F79A83898383E0B9
:102AE00067E040E00E949C0E2F960FB6F894DEBF80
:102AF0000FBECDBFCF91DF910895DF93CF93CDB7B8
:102B0000DEB72F970FB6F894DEBF0FBECDBF8F870D
:102B100080E06FEF0E94C41083E063E041E00E9418
:102B20009C0D83E067E041E00E949C0D83E064E03F
:102B300041E00E949C0D83E063E040E00E949C0E17
:102B400083E064E040E00E949C0E80E06F850E947C
:102B5000051183E067E041E00E949C0E80E090E078
:102B6000A0E8BFE38B879C87AD87BE876B857C859C
:102B70008D859E8520E030E04AEF54E40E941F02DC
:102B8000DC01CB018F839887A987BA876F8178850D
:102B900089859A8520E030E040E85FE30E942504C3
:102BA00088232CF481E090E09E838D833FC06F8169
:102BB000788589859A8520E03FEF4FE757E40E94AA
:102BC000C50318164CF56B857C858D859E8520E0A8
:102BD00030E040E251E40E941F02DC01CB01BC0165
:102BE000CD010E944900DC01CB019E838D830FC083
:102BF00088EC90E09C838B838B819C810197F1F71B
:102C00009C838B838D819E8101979E838D838D8193
:102C10009E81009769F714C06F81788589859A85B0
:102C20000E944900DC01CB019E838D838D819E81B2
:102C30009A83898389819A810197F1F79A8389839D
:102C400083E067E040E00E949C0E2F960FB6F89458
:102C5000DEBF0FBECDBFCF91DF910895DF93CF933D
:102C600000D000D0CDB7DEB79C838B838B819C8155
:102C70009A8389830AC0E981FA8180810E94CC14F9
:102C800089819A8101969A838983E981FA81808179
:102C9000882389F70F900F900F900F90CF91DF91BD
:102CA0000895DF93CF9300D00F92CDB7DEB78A831C
:102CB0006B838A818823C9F08A818330B0F48B8149
:102CC000882399F08B81813180F48A81813021F4CD
:102CD0008B818158898306C08A81823019F48B8167
:102CE0008154898389810E947D150F900F900F90E8
:102CF000CF91DF910895DF93CF9300D000D000D023
:102D0000CDB7DEB79B838A836C834D832E838C8102
:102D1000882F90E00896880F991F880F991F880FB9
:102D2000991F0E947D1519820EC08981282F30E0DD
:102D30008A819B81FC01E20FF31F80810E94CC14E9
:102D400089818F5F89838981883078F38D816E8155
:102D50000E9451168C810E94CC1426960FB6F894CE
:102D6000DEBF0FBECDBFCF91DF910895DF93CF932C
:102D7000CDB7DEB781E06FEF0E94051181E06FE013
:102D80000E94C410CF91DF910895DF93CF93CDB708
:102D9000DEB760970FB6F894DEBF0FBECDBF188ABE
:102DA000ACC081E0688940E00E949C0E84E08F877F
:102DB00098C081E06F850E949C0F882309F08EC027
:102DC0008F85882F90E0AC01445050408889282F8F
:102DD00030E0CA01880F991F880F991F820F931F37
:102DE000FC01E457FE4F808180938B0181E06F8569
:102DF0000E949C0F8823D1F380E090E0A0E2B1E430
:102E00008B879C87AD87BE876B857C858D859E85EE
:102E100020E030E04AEF54E40E941F02DC01CB01C5
:102E20008F839887A987BA876F81788589859A85E6
:102E300020E030E040E85FE30E94250488232CF482
:102E400081E090E09E838D833FC06F817885898586
:102E50009A8520E03FEF4FE757E40E94C50318161C
:102E60004CF56B857C858D859E8520E030E040E2C9
:102E700051E40E941F02DC01CB01BC01CD010E9484
:102E80004900DC01CB019E838D830FC088EC90E06C
:102E90009C838B838B819C810197F1F79C838B832F
:102EA0008D819E8101979E838D838D819E81009768
:102EB00069F714C06F81788589859A850E944900D9
:102EC000DC01CB019E838D838D819E819A838983D2
:102ED00089819A810197F1F79A8389838F858F5F22
:102EE0008F878F85883008F464CF81E0688941E05E
:102EF0000E949C0E88898F5F888B8889843008F4B3
:102F000050CF80918B0160960FB6F894DEBF0FBE54
:102F1000CDBFCF91DF910895DF93CF9300D000D044
:102F2000CDB7DEB769837A838B839C8389819A814D
:102F3000AB81BC81BC01CD010E94F00A0F900F90C3
:102F40000F900F90CF91DF910895DF93CF9300D032
:102F500000D0CDB7DEB79B838A836C838A819B8147
:102F6000892F9927880F806A89830E94340B898171
:102F70000E94700C8A810E94BE0C8C810E94BE0C43
:102F80000E942B0D0F900F900F900F90CF91DF911B
:102F90000895DF93CF9300D000D0CDB7DEB79C83E8
:102FA0008B838B819C81892F9927880F806A8A83E4
:102FB0000E94340B8A810E94700C8B810E94BE0C8F
:102FC0000E94D20B8B819C81892F9927880F816A5F
:102FD0008A838A810E94970C0E94080D89830E942F
:102FE0002B0D89810F900F900F900F90CF91DF9153
:102FF0000895DF93CF9300D000D0CDB7DEB760E95E
:103000007FE581E090E00E948C1719821A821B8272
:103010001C8214C029813A818981482F4F5CC901E3
:10302000642F0E94A51789819A81AB81BC8101968A
:10303000A11DB11D89839A83AB83BC8389819A8149
:10304000AB81BC8184309105A105B10518F30F90C7
:103050000F900F900F90CF91DF910895DF93CF9352
:10306000CDB7DEB728970FB6F894DEBF0FBECDBF41
:103070000E945A120E94B6168FEF888781E08E83D5
:103080001D8214C10E94C51688878FEF80938B0123
:1030900088858D3309F0F0C088850E94CC148D811D
:1030A000882319F08D81823070F181E061E00E9407
:1030B000511680E690E00E942E161D820E94D207D3
:1030C00081EA99E10E94700888EC0E9450080E94F1
:1030D00018080E94800D82E067E041E00E949C0D8C
:1030E00082E067E041E00E949C0E0E94E6098BE1CD
:1030F0009AE10E94840A8CE80E94640A0E942C0AC9
:103100000E94800DD3C08D81813009F0CFC019821B
:103110001A821B821C8274C089819A810E94C917FD
:10312000982F8F81981709F060C081E061E00E94BC
:1031300051168AE690E00E942E1682E066E041E099
:103140000E949C0D82E066E041E00E949C0E0E947D
:10315000E60983E59AE10E94840A8CE80E94640AE9
:103160000E942C0A0E94800D83E065E041E00E94ED
:103170009C0D0E94DC088FE19EE40E94660960E0DD
:1031800070E084EB92E40E949B110E94D20781EED2
:1031900099E10E94700888EC0E9450080E9418086B
:1031A0000E94800D83E060E040E00E949C0D83E07F
:1031B00061E041E00E949C0D82E062E041E00E94FB
:1031C0009C0D82E062E041E00E949C0E81E40E943E
:1031D0008A0782E062E041E00E949C0D82E062E0AA
:1031E00041E00E949C0E1E8215C089819A81AB81AC
:1031F000BC810196A11DB11D89839A83AB83BC83D9
:1032000089819A81AB81BC8184309105A105B1058A
:1032100008F482CF8E81813009F048C081E061E0FE
:103220000E94511680E690E00E942E161D820E9498
:10323000D20781EA99E10E94700888EC0E94500848
:103240000E9418080E94800D82E067E041E00E9421
:103250009C0D82E067E041E00E949C0E0E94E6091E
:103260008BE19AE10E94840A8CE80E94640A0E9421
:103270002C0A0E94800D1AC088858F3FB9F088857E
:103280008B32A1F088858D3289F08885883771F07E
:1032900088858F3259F088858F3441F08D818F5F1A
:1032A0008D8388850E94CC1488858F838E818130A0
:1032B00009F4E8CE28960FB6F894DEBF0FBECDBF56
:1032C000CF91DF910895DF93CF9300D000D0CDB799
:1032D000DEB70E945A1260E97FE581E090E00E942B
:1032E0008C171C821B820EC02B813C818B81482F46
:1032F0004F5CC901642F0E94A5178B819C810196A8
:103300009C838B838B819C81833091056CF31A8223
:1033100019820BC089819A810E94C9170E94CC141E
:1033200089819A8101969A83898389819A818330E0
:10333000910584F30F900F900F900F90CF91DF9134
:103340000895DF93CF93CDB7DEB78091A40190911C
:10335000A501A091A601B091A7010196A11DB11DE3
:103360008093A4019093A501A093A601B093A70117
:103370008091A4019091A501A091A601B091A7010F
:10338000883823E1920720E0A20720E0B207B1F4D9
:1033900081E061E00E94511682E790E00E942E16C3
:1033A00081E061E00E9451161092A4011092A501E3
:1033B0001092A6011092A7010E943408CF91DF91CC
:1033C0000895DF93CF93CDB7DEB78091A801909198
:1033D000A901A091AA01B091AB010196A11DB11D57
:1033E0008093A8019093A901A093AA01B093AB0187
:1033F0008091A8019091A901A091AA01B091AB017F
:10340000883823E1920720E0A20720E0B20781F488
:1034100060E070E080E090E00E949B111092A801B3
:103420001092A9011092AA011092AB010E943408D7
:10343000CF91DF910895DF93CF93CDB7DEB7809121
:10344000AC019091AD01A091AE01B091AF01019698
:10345000A11DB11D8093AC019093AD01A093AE016D
:10346000B093AF018091AC019091AD01A091AE01FC
:10347000B091AF01883823E1920720E0A20720E055
:10348000B20771F482E067E00E9447101092AC012D
:103490001092AD011092AE011092AF010E94480A45
:1034A000CF91DF910895DF93CF93CDB7DEB78091B1
:1034B000B0019091B101A091B201B091B301019618
:1034C000A11DB11D8093B0019093B101A093B201F1
:1034D000B093B3018091B0019091B101A091B2017C
:1034E000B091B301883823E1920720E0A20720E0E1
:1034F000B20771F482E066E00E9447101092B001BA
:103500001092B1011092B2011092B3010E94480AC8
:10351000CF91DF910895DF93CF93CDB7DEB70E94AF
:1035200047070E94F9170E942E18FFCFA1E21A2E1A
:10353000AA1BBB1BFD010DC0AA1FBB1FEE1FFF1F57
:10354000A217B307E407F50720F0A21BB30BE40BA7
:10355000F50B661F771F881F991F1A9469F76095EE
:103560007095809590959B01AC01BD01CF010895A8
:103570002F923F924F925F926F927F928F929F9283
:10358000AF92BF92CF92DF92EF92FF920F931F9371
:10359000CF93DF93CDB7DEB7CA1BDB0B0FB6F89422
:1035A000DEBF0FBECDBF09942A88398848885F8462
:1035B0006E847D848C849B84AA84B984C884DF80D3
:1035C000EE80FD800C811B81AA81B981CE0FD11DB7
:1035D0000FB6F894DEBF0FBECDBFED010895F8948D
:0235E000FFCF1B
:1035E200496E636F727265637400436F72726563D2
:1035F2007400202020202020202020202020202095
:103602002020000000000000000000000102020370
:103612000303030404040404040404050505050566
:103622000505050505050505050505060606060643
:103632000606060606060606060606060606060628
:103642000606060606060606060606070707070713
:1036520007070707070707070707070707070707F8
:1036620007070707070707070707070707070707E8
:1036720007070707070707070707070707070707D8
:1036820007070707070707070707070808080808C3
:1036920008080808080808080808080808080808A8
:1036A2000808080808080808080808080808080898
:1036B2000808080808080808080808080808080888
:1036C2000808080808080808080808080808080878
:1036D2000808080808080808080808080808080868
:1036E2000808080808080808080808080808080858
:1036F2000808080808080808080808080808080848
:103702000808080808080808080808FF3738392F89
:0C371200343536783132332D4F303D2BEA
:00000001FF
